:020000040800F2
:10000000F81E002001010008D12A00081728000866
:10001000CD2A000899050008992D0008000000006D
:10002000000000000000000000000000032B00089A
:100030005506000800000000D52A0008052B00081E
:100040001B0100081B0100081B0100081B01000820
:100050001B010008012B00081B0100081B01000800
:100060001B0100081B010008570600081B010008BF
:100070001B0100081B0100081B0100081B010008F0
:100080001B0100081B0100089D0400081B0100085B
:10009000892D00081B0100081B01000861060008EB
:1000A0001B0100081B0100081B0100081B010008C0
:1000B0001B0100081B0100081B0100081B010008B0
:1000C0001B0100081B0100081B0100081B010008A0
:1000D0001B0100081B0100081B0100081B01000890
:1000E0001B0100081B0100081B010008DFF80CD0F1
:1000F00000F088F900480047F5320008F81E00209B
:100100000648804706480047FEE7FEE7FEE7FEE7B1
:10011000FEE7FEE7FEE7FEE7FEE7FEE7912B0008BD
:10012000ED000008202A04DB203A21FA02F0002129
:10013000704721FA02F3D040C2F1200291400843F7
:1001400019467047D2B201E000F8012B491EFBD2DC
:1001500070470022F6E710B513460A4604461946D2
:10016000FFF7F0FF204610BDF0B480EA0102D40F83
:100170004200B2EB410F02D20246084611464A0045
:1001800042D0C30DDDB2C1F3C752AD1A202D35DA0E
:10019000C1F3160141F4000204B15242C5F1200638
:1001A00002FA06F12A411044B3EBD05F23D0C4B168
:1001B000012DA0EBC35009DCF0BC4FF0004202EA75
:1001C000C352DBB200F5000000F0EEB8400000F1D1
:1001D000807000EBC350A0F1807040EAD1704900FC
:1001E00009E0490841EAC071A0EBC35000F50000E6
:1001F000400800EBC350F0BC00F0CDB861420122D2
:1002000002EB4101001BF6E7F0BC704781F00041B2
:10021000AAE780F00040A7E780EA010210B502F0EB
:100220000043400022D04A001FD0010E01EB1261B2
:10023000C0F35600C2F3560240F4000042F400023C
:10024000A0FB022000047F39140400D0401C50EAB7
:10025000124001D44000491EC2B20C0604EBD0107B
:10026000401C4008802A02D003E0002010BD20F08E
:100270000100002900DA0020184310BD30B480EAE4
:10028000010202F0004530F0004221F0004013D09E
:1002900090B1C30DD40DC2F31601C0F31600E41AD9
:1002A00041F4000140F400027D34914201D3641C0A
:1002B00000E04900002C02DA30BC002070474FF407
:1002C00000000023914201D3891A034340084FEAFA
:1002D0004101F7D151B1914202D14FF0004105E007
:1002E00002D24FF0010101E06FF0010103EBC450B5
:1002F000284430BC00F04FB8C10F80EAE0700844D9
:10030000CA079623002100F04FB80000002801DB47
:10031000C0F10040002901DBC1F10041814270477A
:10032000002801DBC0F10040002901DBC1F10041E0
:10033000884270472DE9F05F0546002092469B46B3
:1003400088460646814640241BE0284641464746EB
:100350002246FFF7E7FE53465A46C01A914110D392
:1003600011461846224600F05FF82D1A67EB010887
:100370004F4622460120002100F056F817EB0009F5
:100380004E41201EA4F10104DFDC484631462A46D6
:100390004346BDE8F09F0029A8BF7047401C4900B4
:1003A00008BF20F00100704710B4B0FA80FC00FADA
:1003B0000CF050EA010404BF10BC704749B1CCF105
:1003C000200421FA04F411FA0CF118BF0121214391
:1003D0000843A3EB0C01CB1D4FEA00614FEA10204C
:1003E00042BF002010BC704700EBC35010440029EE
:1003F000A4BF10BC7047401C490008BF20F001009A
:1004000010BC7047064C074D06E0E06840F0010361
:1004100094E8070098471034AC42F6D3FFF76AFE21
:100420008C330008AC330008202A04DB203A00FAA1
:1004300002F1002070479140C2F1200320FA03F33B
:1004400019439040704770B58C1810F8015B15F097
:10045000070301D110F8013B2A1106D110F8012B36
:1004600003E010F8016B01F8016B5B1EF9D12B075B
:1004700005D40023521E0DD401F8013BFAE710F811
:10048000013BCB1A921C03E013F8015B01F8015BFE
:10049000521EF9D5A142D8D3002070BD10B5024834
:1004A00000F0A6F910BD00003C15002070B5044610
:1004B00000252068806800F0010018B3206880687B
:1004C00020F001002168886001F050FA054613E031
:1004D00001F04CFA401B02280ED92068806800F019
:1004E000010048B1A06A40F01000A062E06A40F04C
:1004F0000100E062012070BD2068806800F001000A
:100500000028E5D10020F6E738B504460025002094
:1005100000902068806800F0010078BB2068806847
:1005200040F0010021688860194800681949B0FB53
:10053000F1F0009002E00098401E00900098002822
:10054000F9D101F013FA054619E001F00FFA401B4A
:10055000022814D92068806800F0010078B9A06AE8
:1005600040F01000A062E06A40F00100E06200BFCD
:10057000002084F8240000BF012038BD05E0206879
:10058000806800F001000028DFD00020F5E70000BF
:100590003415002040420F0000BFFEE7F0B587B0E1
:1005A00006460C4617461D46019400200290039013
:1005B000049005956B463A4601A9304600F024FBAD
:1005C000012801D107B0F0BD0020FBE710B50823DA
:1005D000034A40F2F1110348FFF7E0FF10BD0000AD
:1005E000141500206C150020F8B514480068009020
:1005F000134A0021684602F057FA00210098FFF7DD
:1006000005FE06460E49FFF739FE05464FF08141CB
:10061000FFF702FE04460B49FFF7FEFD0A4908609A
:100620000A48096801600849496841600823024690
:1006300040F2F1110648FFF7B1FFF8BD1015002098
:100640000000B442DB0F494008150020FF140020D1
:100650006C150020704710B5102000F0D1FF10BDC0
:1006600010B5202000F0CCFF10BD72B600BFFEE731
:100670007047000038B5024600230020009000BFFC
:1006800092F82400012801D1022038BD012082F80F
:10069000240000BF4868072812D21068406B0C790C
:1006A000641E04EB84051F24AC40A0430D796D1E2D
:1006B00005EB85050C68AC4020431468606327E0B7
:1006C00048680D2812D21068006B0C79E41F04EB07
:1006D00084051F24AC40A0430D79ED1F05EB850573
:1006E0000C68AC4020431468206311E01068C06AB5
:1006F0000C790D3C04EB84051F24AC40A0430D791C
:100700000D3D05EB85050C68AC4020431468E062A4
:1007100008680A2812D31068C0680C780A3C04EBF9
:1007200044050724AC40A0430D780A3D05EB450580
:100730008C68AC4020431468E0600FE010680069EA
:100740000C7804EB44050724AC40A0430D7805EB7E
:1007500045058C68AC402043146820610868102867
:1007600002D00868112827D1174C1068A0421ED16A
:100770001068806800F40000F0B91068806840F4E8
:1007800000001468A0600868102815D10F480068A0
:100790000F4CB0FBF4F000EB80004000009002E052
:1007A0000098401E009000980028F9D104E0906A5B
:1007B00040F020009062012300BF002082F8240056
:1007C00000BF184661E700000024014034150020F6
:1007D00040420F0010B50446204600F005F80149DC
:1007E000086010BD2015002001460868C06C7047E5
:1007F00070B50446206805682068466806F0200049
:1008000020282DD105F00200022829D1A06A00F08D
:10081000100018B9A06A40F40070A06220688068D7
:1008200000F46020B0F5602F13D1207B88B92068D8
:10083000406820F0200021684860A06A20F48070A1
:10084000A062A06A00F4805018B9A06A40F00100CC
:10085000A0622046FFF7BEFF6FF01200216808601B
:1008600006F08000802839D105F00400042835D135
:10087000A06A00F0100018B9A06A40F40050A0620D
:100880002068806800F4E040B0F5E04F0DD02068AB
:10089000406800F48060D0B92068806800F460206F
:1008A000B0F5602F13D1207B88B92068406820F014
:1008B000800021684860A06A20F48050A062A06A8D
:1008C00000F4807018B9A06A40F00100A0622046D0
:1008D000FFF7CEFE6FF00C002168086006F04000C4
:1008E00040280DD105F0010050B1A06A40F48030DD
:1008F000A062204600F0A8F86FF0010021680860AF
:1009000070BD00002DE9F0410446002700250026B7
:10091000A84614B90120BDE8F081A06810B1207D7F
:1009200000B100BFA06A30B90020E06284F8240062
:10093000204600F08BF82046FFF7B8FD0746A06A76
:1009400000F01000002873D1002F71D1A06A20F4AC
:10095000885040F00200A062E16960680843217B92
:1009600040EA41000643A068B0F5807F02D0A0684D
:10097000012802D14FF4807000E000200543207D63
:10098000012811D1207B38B9A069401E4FF40061C5
:1009900041EA4030054307E0A06A40F02000A06231
:1009A000E06A40F00100E0622068406820F469409D
:1009B0002843216848602068806821490840304306
:1009C00021688860A068B0F5807F02D0A068012807
:1009D00002D14FF4807000E00020B0F5807F03D199
:1009E000208A401E4FEA00582068C06A20F4700038
:1009F00040EA08002168C862206880681149084000
:100A0000B04208D10020E062A06A20F0020040F06D
:100A10000100A06211E0A06A20F0020040F0100086
:100A2000A062E06A40F00100E062012705E0FFE714
:100A3000A06A40F01000A062012738466BE7000072
:100A4000FDF7E1FFFE0E1FFF7047000010B586B0F6
:100A500004460020029003900490059018492068F5
:100A600088422AD100BF1748806940F400701549B8
:100A700088610846806900F40070019000BF00BFE3
:100A800000BF0846806940F004008861084680691C
:100A900000F00400019000BF00BF0120029003207D
:100AA000039002A9084800F0B9FD00221146122067
:100AB00001F00CF9122001F0F9F806B010BD0000A9
:100AC00000240140001002400008014070B50446B7
:100AD000002500BF94F82400012801D1022070BD38
:100AE000012084F8240000BF2046FFF70DFD0546D5
:100AF000002D7DD1A06A40F60161884340F48070EA
:100B0000A0623F492068884208D13E48006800F44E
:100B1000702008B9012002E0002000E0012078B137
:100B2000A06A20F48010A0622068406800F4806011
:100B300000B3A06A20F4005040F48050A06219E095
:100B4000A06A40F48010A0622E49091F20688842E4
:100B500003D02B492068884204D12A48006800F459
:100B6000806000E0002028B1A06A20F4005040F42A
:100B70008050A062A06A00F4805020B1E06A20F0AA
:100B80000600E06201E00020E06200BF002084F87F
:100B9000240000BFC01E216808602068406840F043
:100BA0002000216848602068806800F46020B0F56B
:100BB000602F16D112492068884208D11148006878
:100BC00000F4702008B9012002E0002000E00120BC
:100BD00038B12068806840F4A000216888600CE08B
:100BE00006E02068806840F480102168886004E096
:100BF00000BF002084F8240000BF28466FE70000F3
:100C00000028014004240140F0B504460D461E466C
:100C100094F8207020688368A86800B900E000BFDD
:100C2000012F01D0022F7DD103F0806030B903F095
:100C3000006018B903F0805000287ED0C3F3016132
:100C4000012088403060A86860B9B5F800C0E86845
:100C500040EA4C5C206800F5C07000EB0110C0F861
:100C600000C00FE0D5E901C040EACC00D5F80CC0C7
:100C700040EA0C00D4F800C00CF5C07C0CEB011C61
:100C8000CCF80000D5F810C0206800F5C07000EB6B
:100C90000110C0F804C0287D01280ED1206800F59D
:100CA000C07000EB0110406840F4807C206800F5C3
:100CB000C07000EB0110C0F804C0D079000692F8B3
:100CC00006C040EA0C4092F805C040EA0C2092F8B9
:100CD00004C040EA0C00D4F800C00CF5C07C0CEB5A
:100CE000011CCCF80C00D078000692F802C040EA53
:100CF0000C4092F801C040EA0C2092F800C040EA93
:100D00000C00D4F800C00CF5C07C0CEB011CCCF836
:100D10000800206800F5C07000EB0110006840F08A
:100D2000010C01E00FE008E0206800F5C07000EB66
:100D30000110C0F800C00020F0BD606A40F400104F
:100D400060620120F8E7606A40F480206062012060
:100D5000F2E7F0B504460A46216894F82050012DC8
:100D600001D0022D74D1D1F8000240F00100C1F889
:100D70000002107D00F01F06012000FA06F3D1F8F2
:100D80001C029843C1F81C02D069C8B9D1F80C0202
:100D90009843C1F80C02908880B2968940EA0646D2
:100DA00001F51070576940F83760108880B21689D5
:100DB00040EA064601F51070576900EBC70046602F
:100DC000D069012819D1D1F80C021843C1F80C02DE
:100DD000908880B2168840EA064601F5107057697F
:100DE00040F83760908980B2168940EA064601F5DE
:100DF0001070576900EBC7004660906928B9D1F8B8
:100E000004029843C1F8040204E0D1F80402184334
:100E1000C1F80402106928B9D1F814029843C1F846
:100E2000140204E0D1F814021843C1F81402106A45
:100E3000012804D1D1F81C021843C1F81C02D1F8D2
:100E4000000220F00100C1F800020020F0BDFFE721
:100E5000606A40F4802060620120F7E7704770B557
:100E6000044694F82050012D01D0022D7DD151B9B6
:100E70002068C06800F0030080B9606A40F4001088
:100E80006062012070BD2068006900F0030028B98D
:100E9000606A40F4001060620120F3E7206800F50A
:100EA000D87000EB0110006800F0040090609068BA
:100EB00040B9206800F5D87000EB01100068400DC3
:100EC000106007E0206800F5D87000EB01100068A2
:100ED000C0085060206800F5D87000EB0110006871
:100EE00000F00200D060206800F5D87000EB01101F
:100EF000406800F00F00082802D30820106108E0C5
:100F0000206800F5D87000EB0110406800F00F0079
:100F10001061206800F5D87000EB0110406800F403
:100F20007F40000A9061206800F5D87000EB011046
:100F30004068000C5061206800F5D87000EB01108B
:100F400080681870206800F5D87000EB0110806888
:100F500000F47F40000A5870206800F5D87000EB5C
:100F60000110806800F47F0000E03CE0000C987005
:100F7000206800F5D87000EB01108068000ED87072
:100F8000206800F5D87000EB0110C0681871206867
:100F900000F5D87000EB0110C06800F47F40000A33
:100FA0005871206800F5D87000EB0110C06800F49B
:100FB0007F00000C9871206800F5D87000EB0110DC
:100FC000C068000ED87131B92068C06840F02000B8
:100FD0002668F06005E02068006940F0200026687F
:100FE000306100204EE7606A40F48020606201209A
:100FF00048E72DE9F05F044600252068466920682F
:10100000D0F80490206887682068D0F80CA0206889
:10101000D0F810B02068D0F8188006F00100002841
:1010200055D007F00100C0B101202168886007F0A9
:10103000020018B1204600F08CFA0EE007F0040020
:1010400010B145F4006508E007F0080010B145F460
:10105000805502E0204600F07BFA07F48070C8B1AA
:101060004FF480702168886007F4007018B1204642
:1010700000F071FA0EE007F4806010B145F40055FD
:1010800008E007F4006010B145F4804502E0204616
:1010900000F060FA07F48030C8B14FF48030216866
:1010A000886007F4003018B1204600F056FA0EE0D0
:1010B00007F4802010B145F4004508E007F4002053
:1010C00010B145F4803502E0204600F045FA06F004
:1010D000080038B10AF0100020B145F40075102066
:1010E0002168C86006F0040040B10AF0080028B189
:1010F00008202168C860204600F0B4F906F002001C
:1011000038B12068C06800F0030010B1204600F03C
:10111000ABF906F0400038B10BF0100020B145F4F7
:10112000806510202168086106F0200040B10BF0B6
:10113000080028B1082021680861204600F0D6F98F
:1011400006F0100038B12068006900F0030010B10B
:10115000204600F0CCF906F4003040B109F0100050
:1011600028B1102021684860204600F0C1F906F43B
:10117000803040B109F0080028B10820216848609B
:10118000204600F0EBF906F4004088B309F00400B3
:1011900078B306F4807020B108F0010008B145F082
:1011A000010506F4007020B108F0020008B145F016
:1011B000020506F4806020B108F0040008B145F093
:1011C000040506F40060A0B108F0700088B108F0D2
:1011D0007000402817D006DC10280BD020280CD037
:1011E000302819D10CE0502810D0602814D110E01C
:1011F0001DE019E045F008050FE045F010050CE092
:1012000045F0200509E045F0400506E045F0800581
:1012100003E045F4807500E000BF00BF20688069EE
:1012200020F07000216888610420216848602DB199
:10123000606A284360622046FFF710FEBDE8F09F19
:1012400070B504460CB9012070BD94F8200010B9A7
:10125000204600F0AFF82068006840F001002168E7
:10126000086000F083FB05460DE000F07FFB401BAB
:101270000A2808D9606A40F400306062052084F8CA
:1012800020000120E0E72068406800F0010000280D
:10129000EBD02068006820F002002168086000F0B0
:1012A00065FB05460DE000F061FB401B0A2808D9EC
:1012B000606A40F400306062052084F8200001205C
:1012C000C2E72068406800F002000028EBD1207ED1
:1012D000012806D12068006840F08000216808607D
:1012E00005E02068006820F0800021680860607ECA
:1012F000012806D12068006840F04000216808609D
:1013000005E02068006820F0400021680860A07EA9
:10131000012806D12068006840F02000216808609C
:1013200005E02068006820F0200021680860E07E69
:10133000012806D12068006820F0100021680860AC
:1013400005E02068006840F0100021680860207FF8
:10135000012806D12068006840F008002168086074
:1013600005E02068006820F0080021680860607FC0
:10137000012806D12068006840F004002168086058
:1013800005E02068006820F0040021680860D4E9C6
:101390000201084321690843616908436168491EE5
:1013A00008432168C86100206062012084F82000A1
:1013B000002049E710B586B0044600200290039053
:1013C0000490059023492068884241D100BF2248FB
:1013D000C06940F000702049C8610846C06900F04B
:1013E0000070019000BF00BF00BF0846806940F058
:1013F000080088610846806900F00800019000BF7D
:1014000000BF8815029000200390049002A91348A1
:1014100000F004F94FF400700290022003900320C2
:10142000059002A90D4800F0F9F800BF0C49486882
:1014300020F4C04040F0E06040F48040486000BFCD
:1014400000221146142000F041FC142000F02EFC74
:1014500006B010BD0064004000100240000C0140C6
:1014600000000140704700002DE9F047054617498C
:101470002868884228D1164B164A00212846FFF7D3
:10148000EEFC044604BB0120134908701048807824
:101490000F49497840EA012006B23046FEF72CFF9A
:1014A00082464FF08F41FEF7E9FE81460B49FEF779
:1014B000B3FE80460A49FEF7E1FE07460949FEF7FA
:1014C000ABFE0949086000BFBDE8F087006400403A
:1014D000F7140020D8160020071500200000D04186
:1014E000DB0F4940000034431C1500207047704753
:1014F000704770B5044694F82000012822D10220DC
:1015000084F820002068006820F00100216808604D
:1015100000F02CFA05460DE000F028FA401B0A28DE
:1015200008D9606A40F400306062052084F8200029
:10153000012070BD2068406800F001000028EBD158
:101540006062F6E7606A40F4002060620120F0E724
:10155000704770477047704770477047704700008A
:1015600070B5044600F002FA06462546681C10B124
:1015700004480078054400BF00F0F8F9801BA84239
:10158000FAD370BD3015002010B50446102C0FD1D1
:101590001021114800F0D2F950B9A1020E4800F014
:1015A000D5F94FF6FF730F220CA1104801F0D4F8C3
:1015B000202C0FD12021084800F0C0F950B9210299
:1015C000054800F0C3F94FF6FF730F2208A1074842
:1015D00001F0C2F810BD0000000C01404B4559312C
:1015E0002074726967676572200D0A00E815002093
:1015F0004B4559322074726967676572200D0A0085
:1016000010B5044604480068204020B10248046038
:101610002046FFF7B9FF10BD140401402DE9F8473B
:101620000346002294466EE14FF0010808FA02F4E6
:10163000D1F8008008EA0400A0427DD1DFF8DCA2E6
:10164000D1F80480A8EB0A09D0453AD014DCB8F1EF
:10165000030F50D009DCB8F1000F31D0B8F1010F01
:101660001CD0B8F1020F49D120E0B8F1110F18D009
:10167000B8F1120F42D11EE0B9F5881F25D006DC63
:10168000B9F5803F20D0B9F5801F37D11AE0B9F500
:10169000001F18D0B9F5041F30D117E0D1F80CC0E5
:1016A0002DE0D1F80C8008F1040C28E0D1F80C8072
:1016B00008F1080C23E0D1F80C8008F10C0C1EE0B6
:1016C00000BF00BF00BF00BF00BF00BFD1F808804F
:1016D000B8F1000F02D14FF0040C0BE0D1F80880F4
:1016E000B8F1010F03D14FF0080C1C6102E04FF07C
:1016F000080C5C6103E04FF0000C00E000BF00BF8D
:10170000FF2801D8984601E003F104084646FF2867
:1017100002D84FEA820803E0A2F108084FEA8808DD
:101720004746D6F800804FF00F0909FA07F928EA72
:1017300009080CFA07F900E088E048EA0908C6F849
:101740000080D1F8048008F08058B8F1805F7DD126
:1017500000BFDFF8CC81D8F8188048F00108DFF826
:10176000C091C9F81880C846D8F8188008F0010858
:10177000CDF8008000BF00BF4FEAB9384FEA9209A8
:1017800058F829504FEA82784FEA18794FF00F083D
:1017900008FA09F825EA0805DFF88881434502D1EF
:1017A0004FF0000816E0DFF88081434502D14FF08A
:1017B00001080FE0DFF87481434502D14FF00208C1
:1017C00008E0DFF86C81434502D14FF0030801E0E7
:1017D0004FF004084FEA82794FEA197908FA09F8BC
:1017E00048EA0505DFF84C814FEA920948F829508C
:1017F000D1F8048008F48018B8F5801F0AD1DFF80A
:101800003881D8F8008048EA0008DFF82C91C9F840
:10181000008009E0DFF82081D8F8008028EA00087D
:10182000DFF81491C9F80080D1F8048008F400189A
:10183000B8F5001F10D1DFF8008108F10408D8F8CE
:10184000008048EA0008DFF8F09000E05AE009F173
:101850000409C9F800800DE0DFF8DC8008F1040815
:10186000D8F8008028EA0008DFF8CC9009F10409D4
:10187000C9F80080D1F8048008F40038B8F5003FBA
:101880000ED1DFF8B480A8F10408D8F8008048EA47
:101890000008DFF8A490A9F10409C9F800800DE060
:1018A000DFF89480A8F10408D8F8008028EA00083E
:1018B000DFF88490A9F10409C9F80080D1F8048008
:1018C00008F48038B8F5803F0ED1DFF86C80A8F1BD
:1018D0000808D8F8008048EA0008DFF85C90A9F111
:1018E0000809C9F800800DE0DFF84C80A8F108086D
:1018F000D8F8008028EA0008DFF83C90A9F1080930
:10190000C9F80080521CD1F8008028FA02F8B8F11A
:10191000000F7FF489AEBDE8F887000000001110C9
:101920000010024000080140000C0140001001407E
:101930000014014008000140080401400246936879
:101940000B400BB1012000E00020704710B5C268C9
:1019500021EA020302EA010443EA0443036110BDE1
:101960000AB1016101E00B0403617047014800689E
:10197000704700002815002070B504460CB90120FE
:1019800070BD94F83D0028B9002084F83C00204642
:1019900000F0DAF8242084F83D002068006820F088
:1019A0000100216808602068006840F40040216858
:1019B00008602068006820F400402168086000F09A
:1019C0003BFB05465C496068884206D85B48854217
:1019D00001D2012007E0002005E05948854201D2EC
:1019E000012000E00020012800D1C9E75548B5FBDF
:1019F000F0F62068406820F03F00304321684860DE
:101A00004D496068884201D8701C07E04FF4967019
:101A100070434FF47A71B0FBF1F0401C2168096A01
:101A200021F03F0108432168086243496068884209
:101A300014D8681E61684900B0FBF1F0401CC0F387
:101A40000B00042801D204203DE0681E61684900B3
:101A5000B0FBF1F0401CC0F30B0034E0A06838B9D3
:101A6000681E616801EB4101B0FBF1F0401C0AE027
:101A7000681E616801EBC10202EB0111B0FBF1F0DD
:101A8000401C40F48040C0F30B0008B901201AE06C
:101A9000A06848B9681E616801EB4101B0FBF1F034
:101AA000401CC0F30B000CE0681E616801EBC10232
:101AB00002EB0111B0FBF1F0401CC0F30B0040F44D
:101AC000804040F400402168C9694CF6FF729143A0
:101AD00008432168C861D4E90701084321680968FF
:101AE00021F0C001084321680860D4E903100843CD
:101AF0002168896848F2FF32914308432168886071
:101B0000D4E9050108432168C96821F0FF010843B1
:101B10002168C8602068006840F001002168086002
:101B200000202064202084F83D000020206384F8F9
:101B30003E0000BF24E70000A086010080841E0054
:101B400000093D0040420F0010B586B00446002059
:101B5000029003900490059015492068884225D191
:101B600000BF1448806940F00800124988610846A7
:101B7000806900F00800019000BF00BFC020029003
:101B8000122003900320059002A90B48FFF746FDA1
:101B900000BF0848C06940F400100649C861084603
:101BA000C06900F40010019000BF00BF06B010BD76
:101BB0000054004000100240000C0140034800683F
:101BC0000349097808440149086070472815002036
:101BD0003015002010B50848006840F01000064994
:101BE0000860032000F0B0F80F2000F007F800F0C4
:101BF0002BF8002010BD00000020024070B5044604
:101C00000E4800784FF47A71B1FBF0F00C49096886
:101C1000B1FBF0F5284600F099FC08B1012070BD39
:101C2000102C07D200222146501E00F04FF8054824
:101C3000046001E00120F2E70020F0E73015002009
:101C4000341500202C15002008B500BF1548806908
:101C500040F00100134988610846806900F00100E6
:101C6000009000BF00BF00BF0846C06940F0805030
:101C7000C8610846C06900F08050009000BF00BFF6
:101C800000221146052000F021F8052000F00EF892
:101C900000BF0549486820F0E06040F000704860EF
:101CA00000BF08BD00100240000001400146084688
:101CB000002809DB00F01F0301229A4043099B0022
:101CC00003F1E023C3F8002100BF70472DE9F05F66
:101CD00080460D461646002701F070F80746394643
:101CE0002A46334601F00700C0F1070ABAF1040F93
:101CF00002D94FF0040A01E0C0F1070AD14600F111
:101D0000040ABAF1070F02D24FF0000A01E0A0F175
:101D1000030AD4464FF0010A0AFA09FAAAF1010AA5
:101D20000AEA020A0AFA0CFA4FF0010B0BFA0CFB52
:101D3000ABF1010B0BEA030B4AEA0B0421464046C8
:101D400001F044F8BDE8F09F00BF00F00702064B29
:101D500019684FF6FF031940044B0B4343EA022175
:101D6000014B196000BF70470CED00E00000FA0560
:101D7000F8B5044600260025207800F00100002870
:101D80006BD000274348C06900F0805070B900BF95
:101D90004048C06940F080503E49C8610846C0696B
:101DA00000F08050009000BF00BF01273A48006853
:101DB00000F48070B0B93848006840F4807036494B
:101DC0000860FFF7D3FD064606E0FFF7CFFD801B56
:101DD000642801D90320F8BD2F48006800F4807002
:101DE0000028F2D02B48006A00F440752DB3A0887B
:101DF00000F44070A84220D02648006A20F44075C4
:101E0000012026490860002008602248056205F08C
:101E1000010090B1FFF7AAFD064608E0FFF7A6FD16
:101E2000801B41F28831884201D90320D3E7194849
:101E3000006A00F002000028F0D01648006A20F482
:101E400040706168084313490862012F04D10846B5
:101E5000C06920F08050C86100BF207800F0020007
:101E6000022807D10B48406820F44040A16808438D
:101E700008494860207800F01000102807D1054874
:101E8000406820F48000E16808430249486000206F
:101E9000A1E70000001002400070004040044242F0
:101EA00070B504460D460CB9012070BD5A48006853
:101EB00000F00700A8420ED25748006820F0070043
:101EC0002843554908600846006800F00700A8420A
:101ED00001D00120E9E7207800F0020002281DD19E
:101EE000207800F00400042805D14C48406840F4F4
:101EF000E0604A494860207800F00800082805D1D1
:101F00004648406840F4605044494860434840684F
:101F100020F0F000A168084340494860207800F0B4
:101F2000010078B36068012806D13C48006800F4DD
:101F3000003090B90120B8E76068022806D1374820
:101F4000006800F0007040B90120AEE73348006837
:101F500000F0020008B90120A7E73048406820F0EF
:101F60000300616808432D494860FFF7FFFC0646FF
:101F700009E0FFF7FBFC801B41F28831884202D95F
:101F8000032092E707E02548406800F00C006168F4
:101F9000B0EB810FEDD12048006800F00700A842A7
:101FA0000ED91D48006820F0070028431A49086030
:101FB0000846006800F00700A84201D0012074E73D
:101FC000207800F00400042807D11448406820F469
:101FD000E060E168084311494860207800F008009B
:101FE000082808D10D48406820F46050216940EA73
:101FF000C1000A49486000F03FF808494968C1F348
:102000000311074A515CC840064908600648006849
:10201000FFF7F4FD002048E70020024000100240D6
:1020200072330008341500202C1500200148006888
:10203000704700003415002000B5FFF7F7FF044992
:102040004968C1F30221034A515CC84000BD000049
:10205000001002408233000800B5FFF7E7FF044993
:102060004968C1F3C221034A515CC84000BD000069
:10207000001002408233000870B5002100220024C5
:1020800000230020134D696801F00C05F5B1042D03
:1020900002D0082D19D101E00F4819E00F4DC1F30E
:1020A0008346AB5D01F4803555B10A4D6D68C5F3CB
:1020B00040450B4E725D084D5D43B5FBF2F402E006
:1020C000084D03FB05F4204602E000BF024800BFB4
:1020D00000BF70BD0010024000127A00603300089B
:1020E0007033000800093D00F8B504460CB9012022
:1020F000F8BD207800F00100002878D0F84840684A
:1021000000F00C0004280CD0F548406800F00C00EA
:10211000082811D1F248406800F48030B0F5803FC3
:102120000AD1EF48006800F4003000285FD06068F2
:1021300000285CD10120DBE700BF6068B0F5803F7C
:1021400006D1E748006840F48030E549086028E09F
:10215000606858B9E248006820F48030E0490860BF
:102160000846006820F4802008601AE06068B0F536
:10217000A02F0BD1DA48006840F48020D8490860CD
:102180000846006840F4803008600AE0D4480068DF
:1021900020F48030D24908600846006820F480208E
:1021A000086000BF606888B1FFF7E0FB054606E005
:1021B000FFF7DCFB401B642801D9032098E7C848DF
:1021C000006800F400300028F2D010E0FFF7CEFBEA
:1021D000054606E0FFF7CAFB401B642801D903202F
:1021E00086E7BF48006800F400300028F2D120786C
:1021F00000F00200022857D1B948406800F00C00F6
:1022000050B1B748406800F00C00082818D1B44815
:10221000406800F4803098B9B148006800F00200CE
:1022200020B12069012801D0012061E7AC48006895
:1022300020F0F800616940EAC100A949086033E074
:102240002069E8B10120A7490860FFF78FFB054628
:1022500006E0FFF78BFB401B022801D9032047E76C
:102260009F48006800F002000028F2D09C480068F7
:1022700020F0F800616940EAC1009949086013E064
:10228000002098490860FFF771FB054606E0FFF75C
:102290006DFB401B022801D9032029E79048006804
:1022A00000F002000028F2D1207800F00800082891
:1022B0002DD1A069B8B101208B490860FFF756FB0A
:1022C000054606E0FFF752FB401B022801D9032018
:1022D0000EE78348406A00F002000028F2D0012097
:1022E00000F0FAFB13E000207F490860FFF73EFB97
:1022F000054606E0FFF73AFB401B022801D9032000
:10230000F6E67748406A00F002000028F2D1207813
:1023100000F00400042873D100277148C06900F060
:10232000805070B900BF6E48C06940F080506C4961
:10233000C8610846C06900F08050009000BF00BF2F
:1023400001276A48006800F48070B0B967480068E7
:1023500040F4807065490860FFF708FB054606E019
:10236000FFF704FB401B642801D90320C0E65F4847
:10237000006800F480700028F2D000BFE0680128F7
:1023800006D15748006A40F001005549086227E02D
:10239000E06858B95248006A20F0010050490862CC
:1023A0000846006A20F00400086219E0E068052889
:1023B0000BD14B48006A40F00400494908620846C6
:1023C000006A40F0010008620AE04548006A20F017
:1023D0000100434908620846006A20F004000862D0
:1023E00000BFE068A0B1FFF7C1FA054609E0FFF7BA
:1023F000BDFA401B41F28831884202D9032077E6BA
:1024000022E03748006A00F002000028EFD012E016
:10241000FFF7ACFA054608E0FFF7A8FA401B41F2C7
:102420008831884201D9032062E62D48006A00F015
:1024300002000028F0D1012F05D12948C06920F001
:1024400080502749C86100BFE069C8B3244840688C
:1024500000F00C00082860D0E069022848D1002074
:1024600020490866FFF782FA054606E0FFF77EFA84
:10247000401B022801D903203AE61948006800F001
:1024800000700028F2D1206AB0F5803F07D11448CF
:10249000406820F40030A168084311494860D4E93D
:1024A000080108430E49496821F4741108430C4996
:1024B000486001200B490866FFF758FA054607E017
:1024C0003DE0FFF753FA401B022801D903200FE635
:1024D0000348006800F000700028F2D02FE00000F0
:1024E000001002400000424280044242007000405E
:1024F000002014490866FFF739FA054606E0FFF7A1
:1025000035FA401B022801D90320F1E50E48006886
:1025100000F000700028F2D111E0E069012800D13C
:10252000E6E50948466806F48031206A814204D114
:1025300006F47011606A814201D00120D8E50020C4
:10254000D6E50000000042420010024070B504468B
:102550002546681EB0F1807F01D301200FE0681E80
:102560004FF0E02148610F214FF0FF3000F02EFCCA
:1025700000204FF0E021886107200861002070BD35
:1025800010B504460CB9012010BDA06900B100E0EF
:1025900000BF94F8410028B9002084F8400020468C
:1025A00000F02AF8242084F841002068C06820F454
:1025B00000502168C860204600F022FB20680069B6
:1025C00020F49040216808612068406920F02A00CA
:1025D000216848612068C06840F400502168C860E4
:1025E00000206064202084F8410084F8420000202C
:1025F000606300BFC8E7000010B586B00446002045
:1026000002900390049005904D49206888422FD194
:1026100000BF4C48806940F480404A4988610846C0
:10262000806900F48040019000BF00BF00BF0846F1
:10263000806940F0040088610846806900F0040069
:10264000019000BF00BF48150290022003900320B4
:10265000059002A93C48FEF7E1FF4FF4806002902C
:1026600000200390049002A93748FEF7D7FF65E0E9
:102670003649206888422ED100BF3248C06940F4F4
:1026800000303049C8610846C06900F4003001904C
:1026900000BF00BF00BF0846806940F004008861A9
:1026A0000846806900F00400019000BF00BF0420CC
:1026B0000290022003900320059002A92248FEF711
:1026C000ADFF0820029000200390049002A91E484C
:1026D000FEF7A4FF32E01E49206888422ED100BFD9
:1026E0001848C06940F480201649C8610846C0698E
:1026F00000F48020019000BF00BF00BF0846806941
:1027000040F0080088610846806900F008000190E8
:1027100000BF00BF0815029002200390032005901F
:1027200002A90C48FEF77AFF4FF4006002900020E7
:102730000390049002A90748FEF770FF06B010BD91
:1027400000380140001002400008014000440040F1
:1027500000480040000C01402DE9F84F04460E46A9
:10276000174699464FF0000A94F84100202850D1AE
:1027700006B117B90120BDE8F88F00206064212060
:1027800084F84100FFF7F2F88246A784E784A06846
:10279000B0F5805F04D1206910B90025B04602E091
:1027A00035464FF000081EE05346002280212046A7
:1027B000CDF8009000F0A2FA20B1202084F841006A
:1027C0000320D8E745B9B8F80000C0F30800216835
:1027D000486008F1020803E02878216848606D1C11
:1027E000E08C401EE084E08C0028DDD153460022BE
:1027F00040212046CDF8009000F080FA20B1202042
:1028000084F841000320B6E7202084F8410000202E
:10281000B1E70220AFE700BFFEE700000EB50020E1
:10282000009001900290134813490860002112485B
:10283000816001210173002101754FF46021C161A4
:1028400000200D49486001210B480161FEF75AF84C
:1028500008B1FDF70AFF0020009001200190002040
:10286000029069460448FDF705FF08B1FDF7FDFE3B
:102870000EBD0000002401403C15002010B50D489D
:102880000D4908600420486000210B488160C16048
:102890004FF480210161C900416100210176417638
:1028A0008176C17601774177FEF7CAFC08B1FDF762
:1028B000DCFE10BD006400406C15002000B585B042
:1028C0000020019002900390049000BF3948806975
:1028D00040F01000374988610846806900F0100018
:1028E000009000BF00BF00BF0846806940F0200094
:1028F00088610846806900F02000009000BF00BF9A
:1029000000BF0846806940F004008861084680697D
:1029100000F00400009000BF00BF00BF08468069BF
:1029200040F0080088610846806900F008000090C7
:1029300000BF00BF002210211F48FFF711F800223E
:102940004FF4E0411D48FFF70BF8102001900120E3
:102950000290002003900120049001A91648FEF780
:102960005DFE4FF4E04001900120029000200390B2
:102970000220049001A91148FEF750FE302001907A
:102980000F4802900020039001A90C48FEF746FE74
:10299000002211460A20FFF799F90A20FFF786F96D
:1029A000002211461720FFF791F91720FFF77EF953
:1029B00005B000BD0010024000080140000C0140BD
:1029C0000000211010B50B480B4908600B48486007
:1029D000002109488160C1604FF4804101610021FC
:1029E00041618161C1610162FEF7C6FF08B1FDF777
:1029F0003CFE10BD0054004094150020A08601004C
:102A000010B50B480B4908604FF4E13048600021D5
:102A100008488160C16001610C2141610021816130
:102A2000C161FFF7ADFD08B1FDF71FFE10BD00004D
:102A300000380140E815002010B50B480B4908602C
:102A40004FF4E1304860002108488160C1600161B5
:102A50000C21416100218161C161FFF791FD08B145
:102A6000FDF703FE10BD00000044004030160020BA
:102A700010B50B480B4908604FF4E1304860002165
:102A800008488160C16001610C21416100218161C0
:102A9000C161FFF775FD08B1FDF7E7FD10BD00004E
:102AA000004800407816002070B504460E461546D2
:102AB00031462068FDF72AFC01D2266005E0294650
:102AC0002068FDF72DFC00D2256070BD00BFFEE739
:102AD00000BFFEE77047000008B508490968C9084B
:102AE0004FF47A72B1FBF2F14143009100BF00BF95
:102AF00000994A1E00920029F9D108BD3415002022
:102B00007047704710B5FFF759F810BD00B593B086
:102B1000282109A8FDF71DFB142104A8FDF719FBC6
:102B20000020009001900290039001200990000481
:102B30000A9000200B9001200D9002201090C103FC
:102B400011914FF4E011129109A8FFF7CDFA08B1E5
:102B5000FDF78BFD0F2004900220059000200690C9
:102B60004FF48060079000200890022104A8FFF72E
:102B700097F908B1FDF779FD0220009080030290DB
:102B80006846FFF7F5F808B1FDF76FFD13B000BD1B
:102B9000704700BF00BF02680C3252E8002F22F4D9
:102BA000907102680C3242E80013002BF3D100BF91
:102BB00000BF00BF0268143252E8002F22F001016A
:102BC0000268143242E80013002BF3D100BF016BFE
:102BD00001290ED100BF00BF02680C3252E8002F5D
:102BE00022F0100102680C3242E80013002BF3D1EE
:102BF00000BF202180F842100021016370470000CF
:102C000070B504462168096921F44051E268114316
:102C1000226811612269A1681143626941EA0205D3
:102C20002168C96841F20C62914329432268D1604E
:102C30002168496921F44071A269114322685161F8
:102C40002D4A2168914202D1FFF706FA01E0FFF711
:102C5000F3F900EBC00101EB001162689200B1FBD7
:102C6000F2F100EBC00202EB001263689B00B2FBC2
:102C7000F3F26423B2FBF3F202EBC20303EB0212A2
:102C8000A1EB8201322202EB01116422B1FBF2F1CD
:102C900001F0F00100EBC00202EB001263689B0040
:102CA000B2FBF3F26423B2FBF3F201EB021200EB8E
:102CB000C00101EB001163689B00B1FBF3F100EB75
:102CC000C00303EB00136668B600B3FBF6F364269B
:102CD000B3FBF6F303EBC30606EB0313A1EB83018F
:102CE000322303EB01116423B1FBF3F101F00F0177
:102CF00011442268916070BD003801402DE9F8430D
:102D000004460D4617469846089E31E0701C70B385
:102D1000FEF72CFEA0EB0800B04200D816B9032045
:102D2000BDE8F8832068C06800F00400F8B1802D89
:102D30001ED0402D1CD020680068C0F3C000B0B188
:102D400000BF002000902068006800902068406864
:102D5000009000BF00BF2046FFF71BFF0820606403
:102D600000BF002084F8400000BF0120D8E7FFE743
:102D7000206800682840A84201D1012000E000201E
:102D8000B842C3D00020CBE710B50248FEF731F9B6
:102D900010BD00006C15002000BFFEE70FB4054B0E
:102DA00010B503A9044A029800F034F810BC5DF88D
:102DB00014FB0000D93200083815002002480068D2
:102DC000C0F30220704700000CED00E010B50028B1
:102DD00004DB0A07130E054A135406E00A07140E13
:102DE000034A00F00F031B1FD45410BD00E400E0A1
:102DF00018ED00E002E008C8121F08C1002AFAD14D
:102E000070477047002001E001C1121F002AFBD16A
:102E1000704700002DE9FF4F8DB00F460546002694
:102E200006E025280BD0DDE90F1290476D1C761CBB
:102E300028780028F5D111B03046BDE8F08F002485
:102E4000A246A1460122EC4900E0044315F8013FE7
:102E5000203B02FA03F00842F7D128782A2810D044
:102E60006FF02F022878A0F13001092914D80AEB5D
:102E70008A0102EB410144F0020400EB010A6D1CDF
:102E8000F0E701CF5FEA000A03D544F40054CAF129
:102E9000000A44F002046D1C28782E2817D115F87A
:102EA000010F44F004042A280ED06FF02F02287876
:102EB000A0F1300109290AD809EB890102EB41018F
:102EC00000EB01096D1CF2E757F8049B6D1C287894
:102ED0006C280FD006DC4C2817D068280DD06A2843
:102EE00014D104E0742810D07A280FD10DE044F4F6
:102EF00000140AE044F4801401E044F440146978BA
:102F0000814202D104F580146D1C6D1C2A786E2A52
:102F10001FD00CDC632A31D004DC002A8BD0582A65
:102F200011D1A3E0642A68D0692A0CD165E0732A24
:102F30002ED004DC6F2A73D0702A04D19BE0752A4E
:102F40006FD0782A6ED01046DDE90F129047761CBC
:102F500050E1C4F30250022806D0032809D0042807
:102F600001CF09D0066045E101CFF117C0E900614A
:102F700040E101CF06803DE106703BE117F8040B0C
:102F80008DF8000000208DF80100EB46012003E0E1
:102F900057F804BB4FF0FF3061074FF0000102D437
:102FA0000DE008F10101884649450FDA8045F8DB5C
:102FB0001BF808100029F4D108E008F10101884647
:102FC0008142FADB1BF808100029F6D1DDE90F2356
:102FD000AAEB08008146214600F036F9304400EBA8
:102FE000080604E0DDE90F121BF8010B9047B8F169
:102FF0000108F7D221464846F7E00A21C4F30253FC
:103000004FF0000B0891022B04D001CFC117032B06
:1030100009D00AE0FF1D27F00707F7E8020108E0E2
:1030200032E01FE020E000B2C117042B01D140B212
:10303000C117031E71F1000307DA4FF0000CD0EB4B
:103040000C006CEB01012D2302E0230504D52B239A
:103050008DF82430012303E0E30701D02023F7E7B4
:10306000984658E00A2110E010210EE010204FF0A1
:10307000000B08900CE010214FF0000B44F004040A
:103080004FF00809089103E008214FF0000B089168
:10309000C4F30253022B04D001CF0021032B06D02E
:1030A00006E0FF1D27F00707F7E8020103E080B202
:1030B000042B00D1C0B24FF0000823072BD5702A93
:1030C00007D0DDF820C08CF0100C5CEA0B0C05D0AA
:1030D0000EE040238DF82430012308E050EA01037C
:1030E00006D030238DF824308DF825200223984611
:1030F000DDF820C08CF0080C5CEA0B0C0BD150EA18
:10310000010301D1630706D530238DF824304FF039
:103110000108A9F10109582A04D038A20B9208AA83
:103120000A920BE03AA2F9E75B46089AFDF702F92A
:103130000B9B9B5C0A9A521E0A92137050EA010282
:10314000F2D10A98ADEB000000F1200B600702D528
:1031500024F4803401E04FF00109D94502DDA9EBE8
:103160000B0000E0002000EB0B0141440890AAEBAB
:10317000010AE00306D4DDE90F232146504600F0A2
:1031800063F806444FF0000908E009A911F80900A6
:10319000DDE90F12904709F10109761CC145F4DB06
:1031A000E0030CD5DDE90F232146504600F04CF832
:1031B000064404E0DDE90F1230209047761C0899A0
:1031C000481E08900029F5DC08E00A980A99007862
:1031D000491C0A91DDE90F129047761CBBF10001F2
:1031E000ABF1010BF1DC21465046DDE90F2300F085
:1031F00019F806446D1C1BE60928010030313233F2
:103200003435363738396162636465660000000022
:10321000303132333435363738394142434445460C
:10322000000000002DE9F041044600251E46174627
:10323000880404D405E039462020B0476D1C641E84
:10324000F9D52846BDE8F0812DE9F0410446002576
:103250001E469046C80301D5302700E02027880489
:1032600004D505E041463846B0476D1C641EF9D5CB
:103270002846BDE8F081000010B58AB00120059015
:1032800000200690012007900020009001900290FD
:10329000039004900120089069460648FDF759FD07
:1032A00004462CB1214604A0FFF778FDFDF7DDF9B7
:1032B0000AB010BD6C15002043414E2046696C7465
:1032C000657220736574204661696C21636F646563
:1032D0003A2564726E00000013B50C464FF6FF737A
:1032E000012269460248FFF737FA00981CBD00002A
:1032F000E8150020FEF76EFCFFF708FCFFF7DEFA8A
:10330000FFF77EFBFFF75EFBFFF796FBFFF7B0FBD7
:10331000FFF7B4FAFFF782FAFFF7AEFF0D48FEF7AA
:10332000E8F80D48FDF7D2FB12E00C480078401C8D
:103330000A490870084600780A2804DBFDF746F9B8
:10334000002006490870FDF74FF90520FEF708F93F
:10335000EBE700006C1500203C1500202415002030
:1033600002030405060708090A0B0C0D0E0F1010C6
:103370000102000000000000000001020304060733
:10338000080900000000010203040000AC3300083B
:10339000000000203C15000046040008E83E00083C
:1033A0003C150020BC090000042E000891422F1A91
:1033B0000702111B147F021116242A7F2A1216629B
:1033C00064081323263649552250430503341C2232
:1033D000411C41221C2A15083E08141A080632080E
:1033E00023A0602A0801211A600B1116201008047E
:1033F00002263E5149453E1C427F40051561514918
:1034000046162141454B31161814127F10162745D8
:10341000454539163C4A4949301C01710962163646
:103420004949493626064949291E4336362A560651
:103430002B0814782A1401297E131408160201514E
:10344000090616324959513E167C1211127C3A7FF8
:103450003C163E414141221A7F053A1C1212411E80
:103460007F09090901181449497A1A7FA11A7F4274
:103470001A7F4E1E2040413F0112295B1B7F4001F5
:1034800011167F020C027F3E7F0408107F483A3EEF
:103490003C1A060C1C51215E0C141929461A46547C
:1034A00012311601017F01011A3F35123F1E1F2004
:1034B00040201F0C1A380C166314081463160708F2
:1034C00070080719EF234543198B211B552A021950
:1034D000781A417D16040201020429712240290B49
:1034E00011162054545478167F484444382E3844DA
:1034F0004444200613487F1A3818121816087E090B
:1035000001021D18A4A4A4E425080404781B447D2A
:103510003B1D4080847D5F341028441B417F121C7A
:103520007C04181E3A7C242948123816FC242424D2
:10353000181A18053AFC1812081A485412201604D2
:103540003F444020163C4040207C1A1CC01A1C0CF2
:103550001430403C2B44284F161CA0A0A07C3F44B4
:1035600064544C441401011372F84333301C100CA2
:103570000603912C40C0780319672A0403212D709B
:1035800088FC0829261820FF211E14F008F033E0DB
:10359000184D211C031E11338870000C101E2123AE
:1035A000241927211010160E45E01804021C0718D4
:1035B00020EA3D020418E0692C2018070717408014
:1035C000F08040403F0202010F01022842F01D013D
:1035D00001011F04912B80B066B1191D2901913A98
:1035E00030CE492C146018043C6018061D1EE010F3
:1035F000080810721F0F102020100FF05310F8361B
:1036000020203F20203C700808C21E3028242221A0
:10361000441E3008888848082E1820202011CC3BF2
:10362000C0203227070424243F241AF82023080846
:103630004B19212036E0108888184B0F11101E38C6
:103640000808C8382021523F1A702E29608F1C228A
:103650002121221C90111D31222211901961CAC012
:10366000C26A80C659081C40201050170102040885
:1036700010204A4001114A04012119152A4032192B
:10368000251B0402F21B7048D13AF0501A360F1E67
:10369000C030C828E87028080718272423140B6FA7
:1036A0002A387E280D203C23020227382008F8887B
:1036B000889F4B203FF01BC0303F1B08383019104B
:1036C00019781B08F80F194039201B100F103E887D
:1036D00088E8081010AC23201810112A035E294036
:1036E000223829402C221E024019A41809F808206B
:1036F0003F21010121252A085229812942414911EE
:103700002EC08080807F0E2FF888C0281808501C9B
:103710000126382F2940292F29801B20301012F82C
:103720001AF81413203F190229204B30C0601A20C8
:1037300074123F4BE010B06B0F10B029D01AF0306C
:103740001980220179203F18242438504FC04C881A
:103750008870C0140C30204B7088C117382021218C
:10376000221C3A189F4A188239A049D0112A1F906A
:10377000121F240878881BC838151C07380E6019DA
:103780001A1AF8201114033C0714073C03481408C4
:103790001868808068180820302C03032C3020081B
:1037A00038C82F5950298F29102F20382621202042
:1037B000681145FE020202257F4040401A0CE0617C
:1037C0001C0106380B191D42FE191D527F1A0412E6
:1037D0000211045A80011930D91D3916211808190F
:1037E000242222223F20AB390F115F3F11202011EC
:1037F0000E21311A0E104B2011104B88F8102A1090
:10380000B359401A1F3F2B22130F16F088888818CF
:103810001A20D029D1497A21176B94949493603956
:1038200060190F4C203F21F3548098987930591239
:103830001AC02719D1193039311F203F24022D30E9
:10384000212A0812893069D7294B2903190BC9602D
:1038500079A019BF2B201FDD390F9C80FFA1E01933
:103860001229D03BA0FF0C3950194112208A01C007
:103870001B3324012A190F3AE0413952290F392309
:1038800049603C103F202C29053F010E30080601FD
:1038900070291038080F300C030C300F2C49A14E42
:1038A000312E0E31200C29621D818E70183059D1B5
:1038B000215721302C22213055807C0202443F4088
:1038C0004072FF39083C02027C8F5440403F800820
:1038D0000601010202040430108080EE888888E826
:1038E0008F088878484E40C01A7FC8127F4F8140A9
:1038F000300F3041C9416D01E21CE03336402010E9
:103900000C0319B14A40EC2C10109001180910104A
:10391000FF1010111610BE1F60203F101010233D25
:10392000102040F8801F3011969090910416981442
:103930001350302A04013E44847E06050A511F02BA
:1039400002021222C206440202FE1C0818081B5D75
:1039500002024181BDD1280D804040C0A06060605E
:10396000A0C0404086021B021AC0941809300C0205
:1039700081E0F0F8FC011AFE046FF8F8F1E204307F
:10398000E2021240131140140F6080DB3FFF013B45
:10399000600F6F7139BAA220281601020810428404
:1039A00004091317170F1F6F1F1F1F0F0707039E11
:1039B0001644489062989CE408203D293011720515
:1039C00059C0180C01184004282098A4A4184013CA
:1039D000160A04030CC03C40800168196F021708E6
:1039E0001A0102197A11180808384805241E099886
:1039F00019F30115100A8080C0C0E4602020205F08
:103A0000444480081020CEC997B13808308CC2E1F8
:103A1000E3F1F0011BE0C0276D010204302E0A1310
:103A20008038CC077EFF0122FC6CB0704F2C49EA35
:103A300059D2B12E0387070F1F01163F9F1F1F0B7F
:103A40002B04032500081A080140221408E03C0258
:103A50000810C31009010926B020C0A08014410835
:103A6000053D08050308150B18040839612A0103F0
:103A70001780080829260E12091A05180215841441
:103A80008040402A20011150084044800810204006
:103A90000A170860580AB09CCEC7C1C1C0C0C0F6A2
:103AA000114809010204308102041039111A80DD25
:103AB000F18C0F7FFF014BFCF027BBEC0F86190246
:103AC00001103E0307070F1F0120087F9310080411
:103AD0000403A80910214082442810A0EAF96F715C
:103AE000180A071C70A0E0800292123766090603CC
:103AF00008C059E1011219C34A20851301041608B0
:103B0000082F221E120942050214102E8040404048
:103B10002001110B104040BC0112D5307C8E818EEB
:103B20000102C430C07511CB60203012804C0F7F71
:103B3000FF016DFEFCF8E0772CE22F20C31A01395B
:103B40000912C51308103E0307070F1F0188121042
:103B5000F010080404032042060C38E0C10204906F
:103B6000FC6A06860112680F06102018A4A418012A
:103B7000060810010D0779495F011669C313010298
:103B8000680804182422110108AE79689128108071
:103B90008040442424202220204444800810CC412A
:103BA000021884CC70EC02A4FE051B0418C056B9A0
:103BB00022BF7CFCF8F8F0E025CC80E01F25011244
:103BC00028080107070F0F1F10013808F090083868
:103BD00074C281165C0408104A39AC7302022C08C6
:103BE00020180F5C04106058780F07163870F083A7
:103BF0008F9428080814C6196DF30104430830197E
:103C0000397A2023000B1902040428042303110E1F
:103C1000452E80C04040200128096044C48408101B
:103C2000204C610B1708082F9D301C1E01DC480C2E
:103C30000102050A0C30C1020C1060AD03118005B1
:103C40007B0F70B589488CF04F40CB1102134010A8
:103C50000803040C08101010180930A030D0080414
:103C6000020277000A1203061C38E1E29C08E079A0
:103C7000F5195C293D100C1860073E28B0C080A0E3
:103C800010089F048A04030CC02CB96F3C18242828
:103C90006E1C1860808A1A0103200D02040838483F
:103CA00047261E0909040219030113680D804040CC
:103CB00040202060A02060C0C0C9031A20302B70B3
:103CC0000CC1711809053FFFFFFFFEFCF8941B10A3
:103CD000204A4199A0711C0730C093B14F010307DE
:103CE000876F0F0B1A043961F21048190304050895
:103CF000081010109060301010184814420109206C
:103D000042844830F559850217081C02081028180B
:103D10000C018489640C9221020C010A9709122C6F
:103D2000E9142A0159080C13010204394A3C2212F1
:103D30000108079A4119EEB80AC0E0606020A0C0EF
:103D4000C0C0DD01175C300C02B3113BFEFF011C4B
:103D5000FEFCF0396A034FE93012809B0F605980F6
:103D60000B030F0F1F1F3F3FBF7F0F6B2080516161
:103D7000294219F71113030410110E141810906042
:103D8000203090D00804048201014E82440810C003
:103D9000E13C040B202A514906A1180E02041040F0
:103DA00081071CB0F0018C08632D117A185BEA01C1
:103DB0002CE1198C19221204071A18242012010967
:103DC000101380C0C0C024202020A0C0C4C480081C
:103DD00010204080021C0617300C020703015DE032
:103DE000FCFEFF0145FEFCF0800218083B07602046
:103DF000116D031F3F7F3594FFFF8F021610158250
:103E0000040408280D1018181020101011090504BA
:103E1000034397040AA4E810C0F3020C3D02041007
:103E2000206E180B04204023182080800A41FDB723
:103E300008840308A002B97339B92939212A01037A
:103E400013810438080830480423170974895CC1B9
:103E50002E804040402001113B404071021E8838B6
:103E60000B307C0E0702C0F0F8FCFEFE19014DFE7F
:103E7000FCF080AFBA065A912B0760596B0F3F31A7
:103E80003901537F8F5B0104B80112150204040845
:103E9000280C10111123231313930B0707C4800858
:103EA00002450A64C810E0021910180A0210400105
:103EB00024104014A0600F1B0102880407B02F29B2
:103EC0006E29C2100801020201010204280908300B
:103ED0004845261A010874012143A04159D802100F
:083EE000FC2975420153127A1E
:04000005080000ED02
:00000001FF
